:020000040800F2
:10C0000018610020A5C1000869E100088DDF000863
:10C01000E5E00008E5D300088709010800000000FA
:10C02000000000000000000000000000B1E3000874
:10C030002DDD00080000000009E20008ADE4000862
:10C04000BFC10008BFC10008BFC10008BFC10008D0
:10C05000BFC10008BFC10008BFC10008BFC10008C0
:10C06000BFC10008BFC10008BFC10008BFC10008B0
:10C07000BFC10008BFC10008BFC10008BFC10008A0
:10C08000BFC10008BFC10008BFC10008BFC1000890
:10C09000BFC10008BFC10008BFC10008BFC1000880
:10C0A000BFC10008BFC10008BFC10008BFC1000870
:10C0B000DDE50008B5E80008BFC10008BFC1000801
:10C0C000BFC10008BFC10008BFC10008BFC1000850
:10C0D000BFC10008BFC10008BFC10008B5EA000821
:10C0E000BFC10008BFC10008BFC10008BFC1000830
:10C0F000BFC10008BFC10008BFC10008BFC1000820
:10C10000BFC10008BFC10008BFC10008BFC100080F
:10C11000BFC10008BFC10008BFC10008BFC10008FF
:10C12000BFC10008BFC10008BFC10008BFC10008EF
:10C13000BFC10008BFC10008BFC10008BFC10008DF
:10C14000BFC10008BFC10008BFC10008F9E1000875
:10C15000BFC10008BFC10008BFC10008BFC10008BF
:10C16000BFC10008BFC10008BFC10008BFC10008AF
:10C17000BFC10008BFC10008BFC10008BFC100089F
:10C18000BFC10008BFC10008DFF814D000F044FBB5
:10C1900000F088F800480047F726010800F0A6FAEA
:10C1A000186100200648804706480047FEE7FEE782
:10C1B000FEE7FEE7FEE7FEE7FEE7FEE7FEE7FEE757
:10C1C00025E5000889C100082DE9F04117460E4613
:10C1D000054633B107FB0354E41B2046B047A54294
:10C1E000FAD1A5F10800BDE8F081202A04DB203A4D
:10C1F00000FA02F1002070479140C2F1200320FABA
:10C2000003F3194390407047202A06DBCB17203AEE
:10C2100041FA02F043EAE07306E041FA02F3D0404B
:10C22000C2F12002914008431946704710B5431AE5
:10C23000934209D28318881803E010F8011D03F80F
:10C24000011D521EF9D210BD40EA01039B0703D025
:10C2500009E008C9121F08C0042AFAD203E011F845
:10C26000013B00F8013B521EF9D210BDD2B201E0F1
:10C2700000F8012B491EFBD270470022F6E710B5EB
:10C2800013460A4604461946FFF7F0FF204610BD44
:10C29000034611F8012B00F8012B002AF9D11846AA
:10C2A0007047000070B5054C054D03E02068204440
:10C2B0008047241DAC42F9D170BD0000002C01085C
:10C2C000042C01082DE9F041074615460E461020C2
:10C2D00006F04EFA04000AD06760C4E9026500F077
:10C2E00001FA0168216004600020BDE8F0810120AE
:10C2F000FBE72DE9FE4F804681EA0300C00F0C46A4
:10C30000009021F0004123F00045B8EB0200A94164
:10C3100005D24046214690461C460B46024623F075
:10C320000040104347D0270DC7F30A00C3F30A515A
:10C330000290401A019040286BDAC3F3130040F4D6
:10C34000801B0098924620B10023D2EB030A63EBD6
:10C350000B0B01985946C0F140025046FFF745FFCC
:10C3600006460D4650465946019AFFF74DFF10EB21
:10C3700008006141002487EA115284EAE7731A43F6
:10C3800040D0009A62B3019A012A4FEA075215DCA5
:10C39000001B61EB02014FF0004202EA0752CDE9B7
:10C3A0000042001C41F5801132462B4600F0CEF9C8
:10C3B00003B0BDE8F08F40462146F9E7001B61EB72
:10C3C0000201001C41F5801300185B412018A2F502
:10C3D000001747EB030140EAD570B6196D4111E033
:10C3E0006D084FEA360645EAC0754FEA0752001B52
:10C3F00061EB0201001C41F5801149084FEA300051
:10C400000019514132462B4603B0BDE8F04F00F011
:10C410008EB90098012240000023D0EB020263EBAA
:10C42000E073009821464FEAE074B8EB000061EB3E
:10C430000401E9E783F000435BE781F0004158E73E
:10C440002DE9FE4F81EA030404F0004421F000418D
:10C4500000944FF0000B23F0004350EA01045ED03B
:10C4600052EA03045BD0C3F30A54C1F30A552C44C7
:10C47000A4F2F3340194A0FB0254C1F3130141F47C
:10C480008011C3F3130343F4801301FB024400FB48
:10C49000034E840A970A44EA815447EA8357A4FB6F
:10C4A000076802958D0A05FB07854FEA932C04FB6C
:10C4B0000C542705029D4FEA065847EA1637B5EB9C
:10C4C00008056EEB070C870E920E47EA811742EAC9
:10C4D0008312A7FB0201B6EB0B0164EB00042B0DEA
:10C4E00043EA0C335E1844EB1C50DA465146E7FB36
:10C4F0000201C5F313044FEA0B3343EA14534FEA26
:10C500000432019C43EA0603A4F10C040294009C4B
:10C51000CDE900B400F01AF903B0BDE8F08F0020B7
:10C520000146F9E72DE9F04D81EA030404F0004BE0
:10C5300021F0004514464FF0000A23F0004150EA74
:10C54000050220D054EA01021DD0C5F30A57024665
:10C55000C5F31303C1F31300C1F30A5640F4801569
:10C5600043F48013A7EB0608101BD64608F2FD38EB
:10C5700073EB050002D308F1010801E092185B415A
:10C58000B8F1000F03DA00200146BDE8F08D00206D
:10C590004FF48011064684460EE0171B73EB050727
:10C5A00005D3121B63EB050306434CEA010C490853
:10C5B0004FEA300092185B4150EA0107EDD152EA90
:10C5C000030012D082EA040083EA0501084305D083
:10C5D000101BAB4106D20122002306E000224FF0DF
:10C5E000004302E06FF0010253101AEB06004CEB1F
:10C5F000085110EB0A0041EB0B01BDE8F04D00F0D3
:10C6000096B8000030B5041E71F1000404DB4FF051
:10C610000044404264EB0101141E73F1000405DB89
:10C620001C464FF00043524263EB0403994208BF9B
:10C63000904230BD30B50B46014600202022012437
:10C6400009E021FA02F59D4205D303FA02F5491BE0
:10C6500004FA02F52844151EA2F10102F1DC30BDF6
:10C660002DE9F05F0546002092469B468846064627
:10C67000814640241BE0284641464746224600F0BA
:10C6800020F853465A46C01A914110D31146184615
:10C690002246FFF7AAFD2D1A67EB01084F462246F6
:10C6A00001200021FFF7A1FD17EB00094E41201EDC
:10C6B000A4F10104DFDC484631462A464346BDE882
:10C6C000F09F202A04DB203A21FA02F00021704773
:10C6D00021FA02F3D040C2F12002914008431946EA
:10C6E00070470000004870470C0200202DE9F0411F
:10C6F0000646FFF7F7FF8046454613E016B1E068AF
:10C70000B0420ED120682860D4E90101D8F8007049
:10C710008847204605F0B6FBD8F80000B842EBD1B8
:10C7200000E025462C68002CE8D1BDE8F08110B56A
:10C73000141E73F1000408DA401C41F10001921844
:10C740005B411A4301D120F0010010BD2DE9F04DED
:10C7500092469B4611B1B1FA81F202E0B0FA80F242
:10C7600020329046FFF741FD04460F4640EA0A009A
:10C7700041EA0B0153465A46084313D0114653EA87
:10C78000010019D0C8F140025046FFF79AFF054654
:10C790000E46504659464246FFF727FD084305D04E
:10C7A000012004E020463946BDE8F08D0020054315
:10C7B00046EAE0762C4337430A986305E40AA0EB87
:10C7C00008000022FD0A44EA47540A3002D500203E
:10C7D0000146E9E7010510196941DDE9084500193D
:10C7E0006941BDE8F04DA2E7C1F30A52C1F313015C
:10C7F00040F2FF3341F480119A4202DA00200146F0
:10C80000704740F233439A42A2F2334202DC524272
:10C81000FFF757BFFFF7E9BC064C074D06E0E0689D
:10C8200040F0010394E8070098471034AC42F6D377
:10C83000FFF7AEFCE02B0108002C0108704770B533
:10C840008C1810F8015B15F0070301D110F8013BBB
:10C850002A1106D110F8012B03E010F8016B01F842
:10C86000016B5B1EF9D12B0705D40023521E0DD49A
:10C8700001F8013BFAE710F8013BCB1A921C03E0E8
:10C8800013F8015B01F8015B521EF9D5A142D8D320
:10C89000002070BD10B504460E23D422024903487F
:10C8A000FFF792FC10BD0000A10C01082C04002031
:10C8B00010B504460E234FF4F27202490248FFF706
:10C8C00083FC10BD3D0A0108C40F002030B50146AD
:10C8D0006922742363247A256920087074204870C3
:10C8E000632088707A20C870002030BD30B50146C2
:10C8F0006922742361247A250878692801D00220EE
:10C9000030BD4878742801D00220F9E78878612882
:10C9100001D00220F4E7C8787A2801D00220EFE79E
:10C920000020EDE77CB50446002211461E2000F0F1
:10C9300039FC6A4601A9204600F06CFB05462846F2
:10C940007CBDFEB505460E4600221146142000F0BF
:10C9500029FC6A4601A9284600F05CFB04460CB19C
:10C960002046FEBD2878022801D0FF20F9E76A465C
:10C9700001A9284600F04EFB04460CB12046F0E722
:10C98000BDF80000062801D0FF20EAE701983060DA
:10C99000BDF80800B0802046E3E77CB505460E46AA
:10C9A00000221146182000F0FDFB6A4601A9284626
:10C9B00000F030FB04460CB120467CBD28780228EC
:10C9C00001D0FF20F9E76A4601A9284600F022FBC2
:10C9D00004460CB12046F0E7BDF80000012801D064
:10C9E000FF20EAE79DF8040030702046E5E72DE9D6
:10C9F000FC4106460C461546002211460B2000F06D
:10CA0000D1FB6A4601A9304600F004FB0746BDF899
:10CA10000000022802D0FF20BDE8FC819DF8040040
:10CA200020709DF8050028703846F5E77CB505466E
:10CA30000C4600221146012000F0B4FB6A4601A911
:10CA4000284600F0E7FA0646BDF80000032801D0AA
:10CA5000FF207CBD9DF80400303020702E206070D7
:10CA60009DF805003030A0709DF806003030E07071
:10CA7000002020713046ECE72DE9FC4105460C46CC
:10CA80001646122C02DDFF20BDE8FC81324621460D
:10CA90001B2000F087FB6A4601A9284600F0BAFA7D
:10CAA0000746BDF80000012801D0FF20ECE79DF803
:10CAB000040008B1FF20E7E73846E5E72DE9FC412F
:10CAC00005460C461646122C02DDFF20BDE8FC810F
:10CAD000324621461D2000F065FB6A4601A9284622
:10CAE00000F098FA0746BDF80000012801D0FF20A9
:10CAF000ECE79DF8040008B1FF20E7E73846E5E7DA
:10CB000070B586B005460C4609A00068059005AAD8
:10CB10000421002000F046FB01AA02A9284600F0EB
:10CB200079FA06469DF808002070304606B070BDC0
:10CB3000544553540EB501F069FF00F017FC3D4811
:10CB400000F0F6F83B48C07801280CD0FE2003F036
:10CB500014FF39A004F066FA3FA004F063FAC02085
:10CB600003F00BFF0EBDF02001F0AAFAFE2003F047
:10CB700004FF3049491D39A004F054FA36A004F0EE
:10CB800051FAC02003F0F9FEFE2003F0F6FE29481A
:10CB900090F82300274991F82210264A92F8212084
:10CBA000CDE900210290234890F82030C27F817F98
:10CBB0002DA004F037FA28A004F034FAC02003F0C6
:10CBC000DCFEFE2003F0D9FE1A490A312DA004F044
:10CBD00029FA21A004F026FAC02003F0CEFEFE20A0
:10CBE00003F0CBFE2AA004F01DFA1BA004F01AFAF1
:10CBF000C02003F0C2FEFE2003F0BFFE29A004F017
:10CC000011FA15A004F00EFAC02003F0B6FE094890
:10CC100000F0F4FA00F05CF8FE2003F0AEFE26A06F
:10CC200004F000FA0CA004F0FDF9C02003F0A5FE0A
:10CC300000BF97E7E43A0020426C7565546F6F744B
:10CC400068204D6F64756C6520496E69742046617B
:10CC5000696C65642E0000000D0A00005665727351
:10CC6000696F6E3A20257300416464726573733A8C
:10CC700020257820257820257820257820257820E3
:10CC8000257800004E616D653A2025730000000094
:10CC900048656C6C6F20426C7565746F6F746821A9
:10CCA0000000000057616974696E6720436F6E6E03
:10CCB000656374696E670000426C7565746F6F74AC
:10CCC0006820436F6E6E65637465642E000000001B
:10CCD0001FB51D208DF8000000208DF801000420F4
:10CCE0008DF8020001208DF80300684601F03EFA3D
:10CCF0000121022001F0AAFA40F2CF70029040F226
:10CD00004730ADF804000020ADF80C00ADF8060087
:10CD100001A9064801F016FE01221146034801F060
:10CD200007FE0121014801F0E6FD1FBD000400409F
:10CD300030B585B00446FF25FE2003F01EFE73A02B
:10CD400004F070F978A004F06DF9C02003F015FE2E
:10CD500000F02AFB0A2000F0EBFF03A904A8FFF76C
:10CD6000CFFE05464DB99DF81000012805D19DF86C
:10CD70000C00012801D1207014E000202070FE205A
:10CD800003F0FBFD9DF80C309DF81020294667A0AC
:10CD900004F048F964A004F045F9C02003F0EDFD6B
:10CDA00005B030BD0A2000F0C3FF611D04A8FFF7E5
:10CDB0003DFE05461DB99DF81000012810D0FE204B
:10CDC00003F0DBFD631D9DF810202946654804F043
:10CDD00029F955A004F026F9C02003F0CEFDDFE7C5
:10CDE0000A2000F0A5FF01AA02A904A8FFF7FFFD91
:10CDF0000546ADB99DF81000012811D19DF8080035
:10CE000000F00F00032805D09DF8040000F00F008B
:10CE1000032802D10120607019E00020607016E044
:10CE2000FE2003F0AAFD9DF8040000909DF8083054
:10CE30009DF8102029464C4804F0F4F83AA004F07C
:10CE4000F1F8C02003F099FD00206070A8E70A20E7
:10CE500000F06EFF04F11E0104A8FFF772FD054605
:10CE60001DB99DF8100001280FD0FE2003F085FDAC
:10CE70009DF8102029463DA004F0D4F82AA004F023
:10CE8000D1F8C02003F079FD8AE746A104F10A0039
:10CE9000FFF7FEF90A2000F04BFF04F10A020A2115
:10CEA00004A8FFF7E9FD05461DB99DF8100001280B
:10CEB0000CD0FE2003F061FD3DA004F0B3F81AA0F1
:10CEC00004F0B0F8C02003F058FD69E70A2000F034
:10CED0002FFF04F10A020A2104A8FFF7EFFD05461F
:10CEE0001DB99DF8100001280CD0FE2003F045FD6F
:10CEF0002FA004F097F80CA004F094F8C02003F0E1
:10CF00003CFD4DE70120E07000BF49E7426C7565CC
:10CF1000546F6F746820496E697469616C697A69CD
:10CF20006E67202E2E2E00000D0A000054657374CB
:10CF3000204661696C656420636D645265733A20B4
:10CF400025642C20726573706F6E73653A202564BA
:10CF50002C207465737420526573756C743A2025A7
:10CF600064000000402B0108842B0108436F6D6DA5
:10CF7000616E6420476574426C7565546F6F7468A8
:10CF80004164647265737320636D645265733A2003
:10CF900025642C20726573706F6E73653A2025646A
:10CFA00000000000565220476C6F7665410000007B
:10CFB0004368616E67652041647665727469736564
:10CFC0004E616D65204661696C65642E000000004D
:10CFD00010B502460B460020002100BF04E05C5C57
:10CFE0000444E0B24C1CE1B29142F8DBC0F580741D
:10CFF000E0B210BD70B505460C46054880780128A2
:10D0000004D11CB12146284600F03AFF002070BD33
:10D01000E43A00202DE9F04190B0064688461746D4
:10D02000002440216846FFF728F96946062001F0F0
:10D03000B5FD01280FD1FE2003F09FFC40A003F0B6
:10D04000F1FF43A003F0EEFFC02003F096FC0120A7
:10D0500010B0BDE8F0816846FFF748FC022800D117
:10D06000F6E700200090ADF804006946012001F0C9
:10D0700095FD01280DD1FE2003F07FFC35A003F0C3
:10D08000D1FF33A003F0CEFFC02003F076FC0120D7
:10D09000DEE79DF80000307000208DF80000694642
:10D0A000022001F07BFD01280DD1FE2003F065FC7C
:10D0B0002EA003F0B7FF26A003F0B4FFC02003F0BA
:10D0C0005CFC0120C4E79DF801009DF8001040EAD7
:10D0D00001243C804146204601F060FD01280ED12C
:10D0E000FE2003F04AFC214624A003F09BFF18A079
:10D0F00003F098FFC02003F040FC0120A8E7694638
:10D10000012001F04BFD01280DD1FE2003F035FC7C
:10D110001FA003F087FF0EA003F084FFC02003F0E0
:10D120002CFC012094E7E0B24146FFF751FF054691
:10D130009DF80000A84201D0032089E7002087E77E
:10D140004865616465722054696D656F757400008F
:10D150000D0A0000526573706F6E7365205479700C
:10D16000652054696D656F75740000004C656E67CD
:10D1700074682054696D656F757400005061796C36
:10D180006F61642054696D656F75743A2025640081
:10D19000436865636B73756D2054696D656F757455
:10D1A00000000000F0B591B005460C46164604F1AB
:10D1B000090701A8FFF78AFB280A8DF80800E8B2E2
:10D1C0008DF80900200A8DF80A00E0B28DF80B00F6
:10D1D0002246314603A8FFF729F8E0B23146FFF7AF
:10D1E000F7FE04F1080101AA505401F001FC394690
:10D1F00001A801F01DFD11B0F0BD00003EB50546CF
:10D2000030E06A4601A902A8FFF7F1FB0446DCB151
:10D21000FE2003F0B2FB3AA003F004FF3DA003F0B0
:10D2200001FFC02003F0A9FBFE2003F0A6FB9DF840
:10D230000820214638A003F0F5FE36A003F0F2FEE8
:10D24000C02003F09AFB3EBD9DF8040000F00F00E3
:10D25000032805D09DF8000000F00F00032801D13D
:10D260000120687068780028CBD00A2000F060FDAB
:10D2700005F1240102A8FFF790FB0446D4B1FE207B
:10D2800003F07BFB2BA003F0CDFE22A003F0CAFE2F
:10D29000C02003F072FBFE2003F06FFB9DF8082016
:10D2A00021461DA003F0BEFE1AA003F0BBFEC02065
:10D2B00003F063FB02A8FFF735FB04461CB99DF899
:10D2C000080001280CD0FE2003F057FB1CA003F03F
:10D2D000A9FE10A003F0A6FEC02003F04EFB0DE057
:10D2E0000120A870FE2003F048FB1CA003F09AFE6A
:10D2F00008A003F097FEC02003F03FFB00BFA2E7A9
:10D3000047657420537461747573204661696C6558
:10D31000642E00000D0A0000636D645265733A20AC
:10D3200025642C20726573706F6E73653A202564D6
:10D330000000000052535349204572726F72210061
:10D34000456E74657220427269646765204D6F6432
:10D3500065204572726F722E0A0000004272696485
:10D360006765204D6F646521210000001CB5012117
:10D37000022000F04BFF10210A4800F07FFD102032
:10D38000009001208DF8040000208DF80600022096
:10D390008DF8050000208DF807006946014800F06F
:10D3A000F7FC1CBD0004024010B51021014800F03C
:10D3B00063FD10BD0004024070B504460D460848E8
:10D3C0004078012809D106488078012805D12946EE
:10D3D000204601F02DFC002070BDFF20FCE700007E
:10D3E000E43A002000BFFEE770B506460C4604F0A4
:10D3F0008000802808D104F07F0000EB800106F552
:10D400008E7000EBC10507E004F07F0000EB8001A7
:10D4100006F55D7000EBC10504F07F00287004F094
:10D420008000C00968702946304602F065FF002080
:10D4300070BD70B506460C4604F08000802808D107
:10D4400004F07F0000EB800106F58E7000EBC10553
:10D4500005E004EB840106F55D7000EBC1050020DA
:10D46000A87004F07F002870C4F3C01068702946CB
:10D47000304602F019FF002070BD2DE9F04106464C
:10D480000D4690461F4605F08000802808D105F023
:10D490007F0000EB800106F58E7000EBC10407E011
:10D4A00005F07F0000EB800106F55D7000EBC10424
:10D4B00005F07F00207005F08000C0096070C4F89E
:10D4C0000880E770607808B12078E080022F01D1F1
:10D4D000002020712146304602F09AFE0020BDE86F
:10D4E000F0812DE9F04105460E461746984606F0B4
:10D4F0007F0000EB800105F55D7000EBC104E76083
:10D50000C4F814800020A061607006F07F002070D5
:10D51000E878012800D12761207820B921462846E3
:10D5200002F09AFD03E02146284602F046FF002063
:10D53000BDE8F08108B500220092009A61F30A125A
:10D54000009202691268009B1A4303691A6008BDC1
:10D5500070B506460C4604F08000802808D104F01F
:10D560007F0000EB800106F58E7000EBC10505E041
:10D5700004EB840106F55D7000EBC1050120A87085
:10D5800004F07F002870C4F3C0106870294630464C
:10D5900002F0E1FE002070BD2DE9F04107460D4686
:10D5A0001646984605F07F0000EB800107F58E7067
:10D5B00000EBC1040120607005F07F002070E66080
:10D5C00026610020A061C4F81480207820B921468B
:10D5D000384602F041FD03E02146384602F0EDFEF8
:10D5E0000020BDE8F0811CB50446204602F0FFFC97
:10D5F000E068C0680090204603F0A2F803280BD131
:10D600000020A0704FF40070A080009820F47050AB
:10D6100000F51050009009E00120A0704020A0808B
:10D62000009820F4705000F5A05000900098E16838
:10D63000C86000200190019820F4005000F50050CF
:10D6400001900198E168486101201CBDF8B50546CC
:10D65000002400200090284603F0B1F8064690E030
:10D6600006F0010000287DD0E1B2284600F002FB60
:10D670000090009800F0010030B3012000FA04F798
:10D680002869406BB84329694863002000900098DE
:10D6900020F00100401C009005F1180050F8240013
:10D6A00000998160E1B23948006842682846904795
:10D6B000E878012808D13CB940F21110405D0428F7
:10D6C00002D1284602F073FD0098C0F3C00060B19B
:10D6D00000200090009820F008000830009005F12C
:10D6E000180050F82400009981600098C0F30010E1
:10D6F00060B100200090009820F0100010300090E1
:10D7000005F1180050F82400009981600098C0F3DA
:10D71000801060B100200090009820F04000403060
:10D72000009005F1180050F82400009981600098DD
:10D73000C0F3400060B100200090009820F002008B
:10D74000801C009005F1180050F8240000998160B9
:10D750000098C0F3C01028B12146284600F09EFA78
:10D76000002000E00BE00090009820F08000803066
:10D77000009005F1180050F8240000998160641CA5
:10D780007608002E7FF46CAF0120F8BD7C000020ED
:10D790007CB50446002500200190204603F017F8D0
:10D7A00006466FE006F00100002869D0E9B2204685
:10D7B00003F015F80190019800F00100C8B30020B3
:10D7C0000190019820F00100401C019004F15400E8
:10D7D00050F8250001998160E078012817D104F103
:10D7E000540050F825000069009005EB850104F510
:10D7F0005D7000EBC10080680099C1F31201411A0D
:10D8000005EB850204F55D7000EBC2008161E9B2B1
:10D810001E480068026820469047E078012808D139
:10D820003DB940F21110005D052802D1204602F0FA
:10D83000BEFC0198C0F3400060B100200190019847
:10D8400020F00200801C019004F1540050F82500E3
:10D85000019981600198C0F3C00088B10B4800684D
:10D8600081682046884700200190019820F0080038
:10D870000830019004F1540050F8250001998160AE
:10D880006D1C7608002E8DD101207CBD7C0000200F
:10D890003EB50446A07A70B1D4F80C01009000980F
:10D8A00020F002000090009820F001000090009904
:10D8B000D4F80C01016000200190019820F00100D3
:10D8C000401C0190206940680199884321694860A3
:10D8D0000848006881692046884700200290029825
:10D8E00020F0004000F1004002900298E168486199
:10D8F00001203EBD7C0000207CB504460020019044
:10D90000019820F0100010300190E06880690199C2
:10D910008843E1688861E068006A0090009800F040
:10D920000F0000EB800104F55D7000EBC10500986D
:10D93000C0F3434007282DD2DFE800F02C04051D7A
:10D940001E2C1F0027E00098C0F30A1090B1009829
:10D95000C0F30A122046E96802F04BFFE86800991C
:10D96000C1F30A110844E860A8690099C1F30A11DB
:10D970000844A8610FE00EE00DE0082204F2CC514B
:10D98000204602F036FFA8690099C1F30A11084445
:10D99000A86100E000BF00BFE0688069019908430A
:10D9A000E168886101207CBD38B5044608480068FC
:10D9B000C1682046884700200090009820F00800A9
:10D9C000083000900098E1684861012038BD0000EF
:10D9D0007C0000201FB50446002000904FF48970A1
:10D9E000005D00902348006841692046884720690F
:10D9F0008068019000200390039820F4006000F5F7
:10DA0000006003900398E1684861A07A70B30198C0
:10DA100000F0010050B340F21510005D012825D13F
:10DA20009DF80000032821D100200290029820F0E8
:10DA30000100401C0290D4F80C01006802990843D0
:10DA4000D4F80C110860029820F00200801C0290AB
:10DA5000D4F80C01006802990843D4F80C1108604E
:10DA60000548006840F0060003490860012004B042
:10DA700010BD00007C00002010ED00E030B587B044
:10DA800004460020029006900590049003900190B7
:10DA9000029820F00100401C029020694068029921
:10DAA0008843216948600021204602F01FFE0025BE
:10DAB0000BE0FF2104F1180050F82500816004F10B
:10DAC000540050F8250081606D1C6078A842F0D8A1
:10DAD0004FF0FF312069816106986FF30F00401C01
:10DAE0000690069880B200F580300690069920696D
:10DAF000C161059820F0080008300590059820F0D5
:10DB00000100401C0590059820F00200801C059043
:10DB1000059920694161049820F00100401C04909F
:10DB2000049820F0080008300490049820F00200C7
:10DB3000801C0490049920690161206900680390A9
:10DB4000039820F4FE600390039920690160204649
:10DB500002F02DFB00200190019820F4805000F588
:10DB6000805001900198E1684861044800680169AB
:10DB700020468847012007B030BD00007C0000200F
:10DB80002DE9F04106460F463946304602F046FE82
:10DB900001214FF4897081550021801C8155002599
:10DBA00011E005EB850106F58E7000EBC104012044
:10DBB00060702570E5800020E0704020A0600020AB
:10DBC000E06060616D1C7078A842EAD8002510E022
:10DBD00005EB850106F55D7000EBC1040020607067
:10DBE0002570E580E0704020A0600020E06060616A
:10DBF0006D1C7078A842EBD8304602F0E7F9304649
:10DC000002F014F80021304602F070FE304602F0B7
:10DC1000A0F8304602F033FDBDE8F08138B5044687
:10DC20000020009007480068C16920468847009896
:10DC300020F4801000F5801000900098E1684861A1
:10DC4000012038BD7C00002038B50446002000903B
:10DC500007480068016A20468847009820F40010B1
:10DC600000F5001000900098E1684861012038BD7F
:10DC70007C00002030B5024615692B6915696C6B74
:10DC800024FA01F505F0010543EAC51302F1180570
:10DC900055F82150AD6805EA030030BD2DE9F84381
:10DCA00007460E4600250020009006EB860107F58A
:10DCB0008E7000EBC104D4E90501451AA068A842A2
:10DCC00000D2A568E81C4FEA900807F1180050F848
:10DCD0002600806900901BE0D4E90501451AA06880
:10DCE000A84200D2A568E81C4FEA9008ABB2F2B295
:10DCF0003846E16802F021FEE0682844E060A0694F
:10DD00002844A06107F1180050F8260080690090AF
:10DD1000009880B2404506D9D4E90510884202D265
:10DD200060690028D8D10120BDE8F8837047000061
:10DD300001B50849009808604FF0E020006940F004
:10DD400001004FF0E021086100BF02480068002890
:10DD5000FBD108BD1000002070B504460D462046DA
:10DD600004F0BAFC08B1002070BD6669A3682168A0
:10DD700003FB061032462946FEF758FAA068401CFD
:10DD8000E16890FBF1F201FB1200A0600120EBE7DB
:10DD9000F0B50A4600210023002400BF3DE0012524
:10DDA00005FA01F3156805EA03049C4234D10568BD
:10DDB0004F000326BE40B543056015794E00B540BF
:10DDC0000668354305601579012D02D01579022DBD
:10DDD00016D185684F000326BE40B543856055794E
:10DDE0004E00B540866835438560456801268E4003
:10DDF000B5434560456896798E40B6B23543456077
:10DE0000C5684F000326BE40B543C560D5794E00B6
:10DE1000B540C6683543C560491C1029BFD3F0BD65
:10DE2000F0B5002300244D07ED0E02FA05F3CE10E5
:10DE300000F1200555F826504E07F70E0F26BE407C
:10DE4000B543CF1000F1200646F82750CE1000F160
:10DE5000200555F8265045EA0304CE1000F12005B0
:10DE600045F82640F0BD0246002013690B400BB177
:10DE7000012000E000207047418370470183704714
:10DE800070B58AB005460E4600240C48006908B1FA
:10DE90000AB070BD1D2E01D2304600E01C200446A1
:10DEA0002246294601A8FEF7C1F9002001A908551C
:10DEB00009940248FFF750FF00BFE9E71C0000206B
:10DEC00070B506462C480078012852D02B480068CF
:10DED000B0F5006F02D1002028490860274800688B
:10DEE00027490968884203D100202349087070BD82
:10DEF0002248006822490968884206D91F480068FC
:10DF0000C0F500601F49086006E01D4800681B4915
:10DF10000968401A1B4908601A48006840280ED951
:10DF20001648008884B240251448006840301349E0
:10DF30000860144800684038124908600FE00F4834
:10DF4000008884B20F48008885B20C4800680D49EB
:10DF5000096808440949086000200A49086001204E
:10DF600005490870084802192B4681213046FFF701
:10DF700013FB00BFBBE70000A8000020A0000020AA
:10DF80009C000020A40000204F2C002000BFFEE7D2
:10DF900010B50446034830F824100348FFF76CFF1F
:10DFA00010BD0000502A01080008024010B50446C8
:10DFB000034830F824100348FFF760FF10BD00004D
:10DFC000502A01080008024010B50446034800EB3F
:10DFD000840041880248FFF74FFF10BD502A010816
:10DFE0000008024010B50446034800EB8400418855
:10DFF0000248FFF743FF10BD502A01080008024005
:10E0000010B504462046FFF7C3FF2046FFF7DCFFAC
:10E01000042003F01BFF2046FFF7C8FF2046FFF750
:10E02000E1FF042003F012FF10BD00001CB5012128
:10E03000022000F0EBF822211F48FFF71FFF80218C
:10E040001D48FFF719FFA220009001208DF8040061
:10E0500000208DF8060002208DF8050000208DF8C4
:10E06000070069461448FFF793FE0920009000203E
:10E070008DF804008DF8070069460F48FFF788FE09
:10E080000121084600F0C2F840210C48FFF7F4FED9
:10E090004020009001208DF8040000208DF806003B
:10E0A00002208DF8050000208DF80700694603481E
:10E0B000FFF76EFE1CBD000000040240000002409D
:10E0C00010B50446F02C03D102210548FFF7D4FE19
:10E0D000F12C03D102210248FFF7CEFE002010BD33
:10E0E0000004024000BFFEE708B5684603F0F2FEF8
:10E0F0000B48006838B10A4900980968884202D381
:10E10000F22000F011F80748006838B1054900987E
:10E110000968884202D3F32000F006F808BD000029
:10E12000F4010020F801002010B50446F22C07D1BC
:10E1300000200949086080210848FFF79DFE08E09B
:10E14000F32C06D100200649086040210548FFF75E
:10E1500093FE002010BD0000F401002000040240E6
:10E16000F8010020000002407047000070B5002157
:10E1700000230F22C4781CB3174C246804F4E06415
:10E18000C4F5E064C4F30721C1F10404E3B20A4119
:10E1900044789C40E1B28478144021430C07210E5E
:10E1A0000E4C05786155047804F01F050124AC403D
:10E1B00005786D11AD0005F1E025C5F8004109E0D5
:10E1C000047804F01F050124AC40054D0678761153
:10E1D00045F8264070BD00000CED00E000E400E0D2
:10E1E00080E100E0024A0A400243024B1A60704795
:10E1F00080FFFF1F08ED00E010B5024801F0DCF8D9
:10E2000010BD0000503400207047000029B1064ABC
:10E2100012680243044B1A6004E0034A1268824306
:10E22000014B1A60704700003038024029B1064A9D
:10E2300012680243044B1A6004E0034A12688243E6
:10E24000014B1A60704700003438024029B1064A79
:10E2500012680243044B1A6004E0034A12688243C6
:10E26000014B1A60704700004038024029B1064A4D
:10E2700012680243044B1A6004E0034A12688243A6
:10E28000014B1A607047000044380240F0B500218D
:10E2900000220024022500260223324F3F6807F0A7
:10E2A0000C0121B1042905D0082937D105E02E4FF2
:10E2B000076036E02D4F076033E02A4F3F1F3F686D
:10E2C000C7F38056274F3F1F3F6807F03F036EB1EB
:10E2D000264FB7FBF3F7DFF88CC0ACF1040CDCF889
:10E2E00000C0CCF3881C07FB0CF40CE01E4FB7FBFE
:10E2F000F3F7DFF870C0ACF1040CDCF800C0CCF32D
:10E30000881C07FB0CF4174F3F1F3F68C7F30147FA
:10E310007F1C7D00B4FBF5F7076002E0124F076039
:10E3200000BF00BF0F4F3F6807F0F0010909104F11
:10E330007A5C0768D74047600A4F3F6807F4E051AE
:10E34000890A0B4F7A5C4768D7408760054F3F6862
:10E3500007F46041490B064F7A5C4768D740C760B5
:10E36000F0BD0000083802400024F400001BB70094
:10E370000000002010B50446034800EB84004188EB
:10E380000248FFF77BFD10BD502A0108000802403B
:10E390007047000010B50446034800EB8400418834
:10E3A0000248FFF760FD10BD502A01080008024036
:10E3B00070470000014908607047000000380140C4
:10E3C0000CB50020019000903448006840F4803083
:10E3D0003249086000BF3148006800F40030009006
:10E3E0000198401C0190009818B90198B0F5A04F11
:10E3F000F1D12A48006800F4003010B101200090EB
:10E4000001E0002000900098012846D123484030C8
:10E41000006840F080502149403108602048006881
:10E4200040F440401E4908601C48083000681B4901
:10E43000083108600846006840F40040086008465B
:10E44000006840F4A05008601648091F0860081FC3
:10E45000006840F08070091F086000BF0F48006826
:10E4600000F000700028F9D040F205700E490860F5
:10E470000A480830006820F00300084908310860A5
:10E480000846006840F00200086000BF03480830FA
:10E49000006800F00C000828F8D10CBD00380240DC
:10E4A000007000400C544007003C024010B500F0E2
:10E4B00093FA00F089FAFFF717FE10BD30B5164841
:10E4C00000684FF47A72B0FBF2F1481EB0F1807F21
:10E4D00001D301201BE0481E4FF0E022506150178D
:10E4E0000F22002807DA13071D0E0C4B00F00F0453
:10E4F000241F1D5503E013071C0E094B1C5400BFBD
:10E5000000204FF0E022906107201061002008B148
:10E5100000BFFEE730BD00003400002018ED00E031
:10E5200000E400E010B5244800682449884217D16F
:10E5300023482149086001218803FFF797FE012045
:10E54000FFF738FF1F49086880F3088800BF0846B6
:10E5500040681D49086008460068804700BFFEE724
:10E560001A48006840F470001849086018480068AC
:10E5700040F0010016490860002015490831086084
:10E580001348006813490840114908601248091DE2
:10E590000860081F006820F48020091F0860002020
:10E5A0000B490C310860FFF70BFF4FF00060074983
:10E5B0008039086010BD0000F0BF0120EFBEADDE65
:10E5C000EDFEFECA0000FF1F4800002088ED00E0BD
:10E5D00000380240FFFFF6FE103000242DE9F04F16
:10E5E00085B04FF014094FF0000A4FF0010B0220E4
:10E5F0000490032003900024002501260027012118
:10E60000880700F084F9012874D102A803F062FCA5
:10E61000DDF8088000BF3CE16006050E012000EB3C
:10E620004400C6B2A048005D30B1012863D0022882
:10E630006FD003280AD1F2E005EB45009B4901EBBE
:10E64000C000407818B90220974908551EE1984843
:10E6500050F82500404505D808F11400944941F8C8
:10E66000250000E012E105EB4500904911F830006B
:10E67000012806D100231A462946032004F0AEF8EB
:10E6800004E105EB4500894901EBC000801C16211F
:10E69000CDE9001005F0010008B1692000E0682014
:10E6A00002463B230121204603F06AFD0746012F65
:10E6B00000D04FB901207C490855002005EB4501E9
:10E6C0007A4A02F83100E1E0022F09D102207649AE
:10E6D0000855002005EB4501744A02F83100D5E0E9
:10E6E000022071490855002005EB45016F4A02F8E8
:10E6F0003100CBE0D4E005EB45006C4901EBC000F4
:10E70000801C1621CDE9001005F0010010B1692030
:10E7100001E028E0682002463B230021204603F068
:10E720002FFD0746012F08D15F490855002005EB52
:10E7300045015E4A02F83100A8E0022F09D102200B
:10E7400059490855012005EB4501584A02F83100A6
:10E750009CE0022054490855002005EB4501534A2E
:10E7600002F8310092E006EB4600504901EBC00090
:10E77000407818B900204C49085587E04C4850F8BB
:10E780002600404505D808F11400494941F8260003
:10E7900000E07BE006EB4600444911F83000012818
:10E7A00006D100231A463146032004F017F86DE025
:10E7B00006EB46003D4901EBC000801C1621CDE967
:10E7C000001006F0010008B1692000E06820024650
:10E7D0003B230121204603F0D3FC0746012F00D044
:10E7E0004FB9032030490855002006EB46012F4A57
:10E7F00002F831004AE0022F08D100202A490855CA
:10E8000006EB4601294A02F831003FE00020264984
:10E81000085506EB4601254A02F8310036E006EBC2
:10E820004600224901EBC000801C1621CDE90010F2
:10E8300006F0010008B1692000E0682002463B2391
:10E840000021204603F09CFC0746012F09D103203C
:10E8500015490855002006EB4601144A02F831001C
:10E8600014E0022F09D100200F490855012006EBC2
:10E8700046010E4A02F8310008E000200A49085516
:10E8800006EB4601094A02F8310000BF00BF601CD8
:10E89000C4B2072CFFF6C0AE0121880700F028F8AB
:10E8A00005B0BDE8F08F0000E00100203C2A002008
:10E8B000AC3A002000B589B001210B4800F027F8E0
:10E8C00001280FD109488078012807D1694608A896
:10E8D00000F036F968460899FEF78CFB01210248E2
:10E8E00000F006F809B000BD00040040E43A002042
:10E8F000CA430282704721B1028842F001020280BD
:10E9000004E002884FF6FE731A400280704730B56B
:10E910000246002000230024158A05EA0103958998
:10E9200005EA010413B10CB1012000E0002030BD64
:10E930001AB183890B43838102E083898B438381EE
:10E940007047000000220288184B98420ED0184BE6
:10E9500098420BD0B0F1804F08D0164B984205D0AA
:10E96000154B984202D0154B984204D14FF68F7345
:10E970001A404B881A43124B984207D0114B9842C9
:10E9800004D04FF6FF431A400B891A4302804B68AC
:10E99000C3620B880385054B984202D0044B984212
:10E9A00001D18B7A038601238382704700000140E6
:10E9B000000401400004004000080040000C00403A
:10E9C000001000400014004002480068401C01494B
:10E9D00008607047180000200448006820B1034810
:10E9E0000068401E014908607047000010000020C8
:10E9F00010B52021044800F061F9012802D1024835
:10EA000000F022FA10BD00000048004000B587B0B9
:10EA100001210220FFF7FAFB4FF44060059002202D
:10EA20008DF818008DF8190005A92048FFF7B0F9F6
:10EA300007220A211D48FFF7F3F907220B211B4883
:10EA4000FFF7EEF901218804FFF700FC4FF4E130F5
:10EA500001900020ADF80800ADF80A00ADF80C00F8
:10EA6000ADF810000C20ADF80E0001A9104800F020
:10EA700081F9012240F225510D4800F056F9272076
:10EA80008DF8000000208DF8010002208DF80200B2
:10EA900001208DF803006846FFF768FB00F0F0F8EE
:10EAA0000121034800F0FEF807B000BD0004024059
:10EAB0000048004010B540F227711D4800F00BF9E6
:10EAC00001281AD11B4C20886188884209D1012075
:10EAD00019490880002240F22771154800F025F9F5
:10EAE00025E06088C0F30802201D815C104800F01A
:10EAF000B0F96088401C608019E040F225510C4854
:10EB000000F0E9F8012812D10C4C20886188401AE5
:10EB1000B0F5007F0BDA064800F096F9C1B2208804
:10EB2000C0F30802201D81542088401C208010BDA5
:10EB3000004800400E3D0020E80100200A3B002074
:10EB400030B502460B461449084600880D466D88CC
:10EB5000401B80B2E0B1084600880D466D88401B1E
:10EB600080B21060084600880D466D88401B84B254
:10EB700009E04888C0F30805081D405D03F8010B53
:10EB80004888401C4880201EA4F10104F1D101E016
:10EB900000201060002030BD0A3B00207CB50446F8
:10EBA0000E461E4D684603F095F91EE001A803F0DD
:10EBB00091F9DDE90010411A40F6B8306043814216
:10EBC00013D9FE2001F0D9FE14480088134A528858
:10EBD000801A81B212A002F025FA14A002F022FAE3
:10EBE000C02001F0CAFE01207CBD0C4800880B4902
:10EBF0004988401A80B2A042D8D309E06888C0F39F
:10EC00000801281D405C06F8010B6888401C6880DC
:10EC1000201EA4F10104F1D100BFE5E70A3B00206A
:10EC2000526563763A202564000000000D0A00005A
:10EC300070B505460E460F4C09E015F8011B2088FB
:10EC4000C0F30802201D81542088401C2080301E03
:10EC5000A6F10106F1D108480088012808D100205A
:10EC600005490880012240F22771044800F05DF850
:10EC700070BD00000E3D0020E8010020004800406B
:10EC80000020054948800880044948800880012008
:10EC900003490880704700000E3D00200A3B002019
:10ECA000E801002021B1828942F40052828104E00F
:10ECB00082894DF6FF731A40828170470246002018
:10ECC000B1F5007F00D100BF13880B400BB10120CC
:10ECD00000E00020704770B50246002400230025A4
:10ECE000002040F66A16B14200D100BFC1F34215C0
:10ECF00001F01F03012606FA03F3012D02D19689C4
:10ED0000334006E0022D02D1168A334001E0968A94
:10ED100033400C12012606FA04F41688344013B16D
:10ED20000CB1012000E0002070BDF0B503460024C6
:10ED300000260025002040F66A17B94200D100BF26
:10ED40001846C1F3421401F01F06012707FA06F521
:10ED5000012C01D10C3004E0022C01D1103000E074
:10ED600014301AB107682F43076002E00768AF4309
:10ED70000760F0BD2DE9FF4705460E460024A14679
:10ED800000BFA046B08900B100BF2C8A24F44054D3
:10ED9000F08804432C82AC8941F20C608443B08833
:10EDA00031890843718908430443AC81AC8A24F457
:10EDB0004074B0890443AC826846FFF767FA204884
:10EDC000854202D01F48854202D1DDF80C9001E057
:10EDD000DDF80890A88900F4004040B109EBC900B3
:10EDE00000EB091031684900B0FBF1F707E009EBCF
:10EDF000C90000EB091031688900B0FBF1F764200D
:10EE0000B7FBF0F004012009642101FB1078A88908
:10EE100000F4004040B1322000EBC800B0FBF1F03C
:10EE200000F00700044308E0322000EB08106421E2
:10EE3000B0FBF1F000F00F0004432C81BDE8FF8728
:10EE4000001001400014014001468888C0F308000A
:10EE50007047C1F308028280704770B504460D46C2
:10EE6000D4F8E4052946426820469047002070BD4A
:10EE700070B504460D464FF48970005D022802D03B
:10EE8000032812D100E000BF688801280CD10021BE
:10EE90004FF48C700151D4F8E4052946826820466D
:10EEA0009047204600F075F804E02946204600F01F
:10EEB00021F800BF00BF70BD2DE9F04106460C46A9
:10EEC000154600272B46224600213046FEF709FB57
:10EED0003846BDE8F0812DE9F04106460C4615465E
:10EEE00000272B46224600213046FEF755FB3846C8
:10EEF000BDE8F08170B504460D4680212046FEF73E
:10EF000027FB00212046FEF723FB204601F04FF9A6
:10EF100070BD2DE9F04104460E4615460027C4F8A1
:10EF20009453C4F89053032140F2111001552B461D
:10EF3000324600212046FEF7D4FA3846BDE8F0817B
:10EF400070B504460025052140F21110015500233B
:10EF50001A4619462046FEF7C4FA204601F027F962
:10EF6000284670BD2DE9F04104460E46154600279F
:10EF7000C4F83C51C4F83851022140F21110015537
:10EF80002B46324600212046FEF706FB3846BDE8F8
:10EF9000F08170B504460025042140F2111001559E
:10EFA00000231A4619462046FEF7F6FA204601F0DD
:10EFB000FEF8284670BD70B505460E46002E51D1AC
:10EFC00005F58E7440F21110405D02283DD1A16814
:10EFD000E069884211D9A168E069401AE061E878E7
:10EFE000012803D1D4E902100844E060A08B82B26A
:10EFF0002846E168FFF76FFF27E0A168206AB0FBB1
:10F00000F1F201FB120078B9A168206A88420BD3A3
:10F01000D4E90801884207D2002211462846FFF7AA
:10F020005AFF0020606210E0D5F8E405C06848B1DE
:10F030004FF48970405D032804D1D5F8E405C16818
:10F04000284688472846FFF77BFF4FF48B70405DCA
:10F05000012816D1284600F06BFA00214FF48B707E
:10F0600041550EE0D5F8E405406950B14FF4897080
:10F07000405D032805D1D5F8E405314642692846AC
:10F080009047002070BD70B505460E46A6BB05F53D
:10F090005D7440F21110405D03283DD1A168E06924
:10F0A000884217D9A168E069401AE061E878012830
:10F0B00003D1D4E902100844E060A368E0699842F3
:10F0C00001D2E06900E0A06882B22846E168FFF75B
:10F0D000F3FE21E0D5F8E405006948B14FF48970EA
:10F0E000405D032804D1D5F8E40501692846884726
:10F0F0002846FFF74EFF0FE0FFE7D5F8E4058069EB
:10F1000050B14FF48970405D032805D1D5F8E4056E
:10F110003146826928469047002070BD0146002094
:10F120007047000070B504460D46E888012804D0F9
:10F1300029462046FFF7DEFE1AE04FF48970005D95
:10F14000022802D003280DD105E0012209492046FA
:10F15000FFF708FF0BE0012204F588712046FFF756
:10F1600001FF04E029462046FFF7C4FE00BF00BFB0
:10F1700070BD000084000020F8B504460E4670887B
:10F18000001208286CD2DFE800F06B0416226B6BCB
:10F190006166A078D4F8EC150A6869469047054680
:10F1A000F088402804D04FF48970005D012801D117
:10F1B0000820009059E0A078D4F8E4158A6A6946DE
:10F1C0009047054602216970C4F8F0554DE0B078CB
:10F1D000062834D2DFE800F0030B131B232BA078A2
:10F1E000D4F8EC154A686946904705462CE0A078AB
:10F1F000D4F8EC158A6869469047054624E0A07863
:10F20000D4F8EC15CA686946904705461CE0A0781A
:10F21000D4F8EC150A6969469047054614E0A078D1
:10F22000D4F8EC154A696946904705460CE0A07889
:10F23000D4F8EC158A6969469047054604E03146E2
:10F240002046FFF757FEF8BD00BF0EE031462046CE
:10F25000FFF750FEF7E731462046FFF74BFEF2E797
:10F2600031462046FFF746FEEDE700BFBDF800003F
:10F2700088B1F08878B1F088BDF80010884202DDCE
:10F28000BDF8000000E0F0880090BDF8002029469D
:10F290002046FFF767FE00BFD5E70146002002E0E9
:10F2A000421CD0B2491C0A78002AF9D170470000EC
:10F2B00070B504460D464FF48970005D022802D0F7
:10F2C000032813D100E000BF01200C4908604FF46F
:10F2D0008C70005920B10846006840F002000860B8
:10F2E000022206492046FFF73DFE04E0294620465B
:10F2F000FFF700FE00BF00BF70BD000088000020C7
:10F300002DE9F04104460D4617460026FCB1204683
:10F31000FFF7C3FF022101EB400038803A78304606
:10F32000711CCEB22A5403223046711CCEB22A542C
:10F330000AE014F8012B3046711CCEB22A54002288
:10F340003046711CCEB22A5420780028F1D1BDE895
:10F35000F0812DE9F04104460F4615461E46DDF8C2
:10F360001880204600F022FC2046FFF7D7FEC4F8A4
:10F37000E465C4F8E885C4F8EC5539462046FEF744
:10F38000FFFBD4F8E81508688047204600F0FCFB36
:10F39000BDE8F08110B50446D4F8E405016A2046C2
:10F3A0008847002010BD10B50446D4F8E405416A32
:10F3B00020468847002010BD7CB50546002428461D
:10F3C00001F0EAF9002865D0284601F0F0F9019033
:10F3D000019808B900207CBD0198C0F3C04018B165
:10F3E0002846FEF7D5F904430198C0F3804018B1D0
:10F3F0002846FEF72BF904430198C0F3400050B1B2
:10F4000000200090009820F00200801C00900098DE
:10F41000E968486100BF0198C00F18B12846FEF79F
:10F4200037FA04430198C0F3C02018B12846FEF70C
:10F43000D1FA04430198C0F3C00018B12846FEF782
:10F44000B3FA04430198C0F3001018B12846FEF740
:10F4500053FA04430198C0F3003018B12846FEF770
:10F460000DFB04430198C0F3403018B12846FEF765
:10F47000BAF804430198C0F3005018B12846FEF7CB
:10F48000CDFB04430198C0F3405018B12846FEF765
:10F49000DBFB044320469EE790F8CC250A7090F8E9
:10F4A000CD254A7090F8CE3590F8CF2503EB022297
:10F4B0004A8090F8D03590F8D12503EB02228A805B
:10F4C00090F8D23590F8D32503EB0222CA80CB887E
:10F4D0004FF4A0721350012340F2111213547047DD
:10F4E00010B504460023402219462046FDF7C5FF0B
:10F4F0000023402280212046FDF7BFFF01214FF469
:10F5000089700155A078D4F8E82551688847002013
:10F5100010BD10B50446D4F8E8150869804740F2DC
:10F520001310015D401E015503210155002010BD3F
:10F5300001460348026808694260002070470000E5
:10F540004C00002010B50446D4F8E405C06920B191
:10F55000D4F8E405C16920468847002010BD70B585
:10F5600004460D46A88818BBE88808BBA87800F0B8
:10F570007F064FF48970005D032804D12946204698
:10F58000FFF7B8FC18E04FF48A7006553146204664
:10F59000FDF7D0FF2046FFF7FCFC26B102214FF417
:10F5A0008970015508E001214FF48970015503E08D
:10F5B00029462046FFF79EFC70BD70B504460D46F7
:10F5C000D4F8E4052946026820469047D4F8E815A7
:10F5D00088688047002070BD70B504460D46A87845
:10F5E0003049087008460078012804DD2946204685
:10F5F000FFF780FC55E04FF48970005D022802D0CF
:10F60000032848D117E02748007880B125480078C2
:10F6100084F8100103214FF48970015521480178C5
:10F620002046FFF7CAFF2046FFF7B3FC02E0204662
:10F63000FFF7AFFC34E01B48007880B902214FF49B
:10F64000897001551748007884F810011548017831
:10F650002046FFF702FC2046FFF79BFC1AE094F8D7
:10F66000100110490978884211D094F810112046F1
:10F67000FFF7F3FB0B48007884F810010948017884
:10F680002046FFF79AFF2046FFF783FC02E0204662
:10F69000FFF77FFC04E029462046FFF72BFC00BF64
:10F6A00000BF70BD8C000020F8B504460D46002652
:10F6B000688801280DD101214FF48C700151D4F8D4
:10F6C000E40529468268204690472046FFF761FC02
:10F6D00039E06888022836D12879A0BB20694068C3
:10F6E0000090A8880612062E22D2DFE806F0210339
:10F6F000090F151B009820F070001030009017E0E3
:10F70000009820F070002030009011E0009820F068
:10F710007000303000900BE0009820F07000403016
:10F72000009005E0009820F070005030009000BF7D
:10F7300000BF05480099016001214FF48B7001550D
:10F740002046FFF726FCF8BD4C0000201CB50446FF
:10F7500069462046FFF7A0FE9DF8000000F01F005C
:10F7600020B1012807D002280FD109E069462046C0
:10F7700000F016F811E06946204600F0F9F80CE0B8
:10F780006946204600F046F807E09DF8000000F0CA
:10F7900080012046FDF7DCFE00BF00BF00201CBD3D
:10F7A00070B505460C46002660780A2829D2DFE8A5
:10F7B00000F01923281E280A0528140F2146284680
:10F7C000FFF7DAFC22E021462846FFF7C8FE1DE0DD
:10F7D00021462846FFF700FF18E021462846FFF79C
:10F7E000A1FC13E021462846FFF762FD0EE021460A
:10F7F0002846FFF759FF09E021462846FFF738FB66
:10F8000004E021462846FFF775FB00BF00BF3046E5
:10F8100070BD00002DE9F04105460E460027347901
:10F820007078002857D001282BD0032875D14FF4C9
:10F830008970405D022802D003281BD107E02CB15B
:10F84000802C03D021462846FDF782FE17E0708801
:10F8500030B92CB1802C03D021462846FDF778FE24
:10F86000D5F8E40531468268284690472846FFF7D8
:10F8700090FB04E031462846FFF73CFB00BF00BF89
:10F8800070E04FF48970405D022802D003281BD13C
:10F8900007E02CB1802C03D021462846FDF758FE06
:10F8A00017E0708878B95CB1802C09D021462846D1
:10F8B000FDF7BFFDD5F8E40531468268284690473C
:10F8C0002846FFF766FB04E031462846FFF712FBA7
:10F8D00000BF00BF46E04FF48970405D022802D0AF
:10F8E000032837D107E02CB1802C03D021462846CD
:10F8F000FDF72EFE33E004F08000802812D104F0E2
:10F900007F0000EB800105F58E7000EBC100807870
:10F9100020B101201549086016E022E000201349BB
:10F92000086011E004F0800070B904EB840105F573
:10F930005D7000EBC100807818B101200B490860B0
:10F9400002E0002009490860022208492846FFF722
:10F9500009FB04E031462846FFF7CCFA00BF00BFA0
:10F9600000E000BF00BF3846BDE8F0818000002005
:10F9700070B504460D4600264FF48970005D0328DB
:10F9800014D1287901280CDCD4F8E40529468268D2
:10F9900020469047E88840B93EB92046FFF7F9FA7B
:10F9A00003E029462046FFF7A5FA04E02946204651
:10F9B000FFF7A0FA00BF00BF304670BD10B5044687
:10F9C0004FF48970015D401C01550421401E015512
:10F9D000D4F8E815C8688047002010BD70B505460A
:10F9E0000C462DB92246064906A0FFF789FC04E023
:10F9F0002246034903A0FFF783FC014870BD0000C5
:10FA00008C2B00204D534320436F6E6669670000C6
:10FA100070470000012001490870704778010020FC
:10FA2000024612200880014870470000580100205B
:10FA300000200149087070477801002010B10128AA
:10FA400002D100E001E000E000BF00BF7047704756
:10FA50007047704770B505460C462DB922460649D9
:10FA600006A0FFF74DFC04E02246034903A0FFF780
:10FA700047FC014870BD00008C2B00204D534320F3
:10FA8000496E746572666163650000000246042079
:10FA900008800148704700007401002070B50546D9
:10FAA0000C462246024903A0FFF72AFC004870BD1D
:10FAB0008C2B00204355484B0000000070B50546D4
:10FAC0000C462DB92246064906A0FFF719FC04E0B2
:10FAD0002246034909A0FFF713FC014870BD00004E
:10FAE0008C2B00204D6173732053746F72616765B6
:10FAF00020696E204853204D6F646500536D61721C
:10FB00007420476C6F7665204875620070B50546B5
:10FB10000C462DB92246064906A0FFF7F1FB04E08A
:10FB20002246034907A0FFF7EBFB014870BD000028
:10FB30008C2B00203030303030303030303031419C
:10FB40000000000030303030303030303030314262
:10FB50000000000002464320088001487047000072
:10FB6000E000002008B50448044B054A012100903C
:10FB70000448FFF7EEFB08BD7C010020B400002024
:10FB80003C0100205034002038B5044643208DF855
:10FB9000000000208DF8010003208DF802000120F4
:10FBA0008DF803006846FEF7E1FA38BD1CB504463F
:10FBB00001210846FEF72AFB01218020FEF736FBD3
:10FBC0004FF4C050009002208DF8040000208DF802
:10FBD000060003208DF8050069460D48FEF7D8F8A9
:10FBE0004FF40040009001208DF8040000208DF8B3
:10FBF000070069460648FEF7CBF80A220B210448A5
:10FC0000FEF70EF90A220C210148FEF709F91CBD86
:10FC10000000024010B504462046FEF789F810BDEA
:10FC200010B50446204602F004F910BD3EB5044666
:10FC300000250020029001900090207A01283DD1FB
:10FC4000E068806B0190019820F480300190607A28
:10FC500028B1019820F4801000F5801001900198DF
:10FC6000E168886300200290E068C0680290029812
:10FC700020F040000290029820F480000290029848
:10FC800020F400300290029820F4002002900298A4
:10FC9000E168C860204600F061F9E078012843D1AE
:10FCA000009820F01E000A300090009820F02000FC
:10FCB000203000900098E168886035E0E068C06816
:10FCC0000290029820F04000403002900298E168D3
:10FCD000C860204600F042F900200190019820F40D
:10FCE000803000F580300190019820F4802000F5EC
:10FCF00080200190019820F4002000F50020019060
:10FD0000019820F4001000F500100190607A28B1ED
:10FD1000019820F4801000F5801001900198E168AE
:10FD200088631420FFF776FFE07801280FD1E068A0
:10FD300080680090009820F01E000A300090009823
:10FD400020F02000203000900098E168886028466C
:10FD50003EBD70B588B0044600260020079006908E
:10FD60000590049003900021D4F80C0101602069F3
:10FD700000680690069820F4C05006900699206905
:10FD80000160E07A01283DD10321204600F0F8FC13
:10FD90008020E1684862059880B200F580000590F7
:10FDA00005986FF30F00803005900598E168886230
:10FDB000059800EB1041049861F30F00049004983B
:10FDC00080B200F5000004900498E168C1F80401D5
:10FDD000049800EB104161F30F000490049880B286
:10FDE00004900499E068C0F80811049800EB1041F1
:10FDF00061F30F000490049880B204900499E068C5
:10FE0000C0F80C111021204600F070FC204600F0D4
:10FE100047FC00212069016120694161491E206978
:10FE2000816100212069C16100252CE004F11800E6
:10FE300050F82500006807900798C00F70B10020A7
:10FE40000790079820F0804000F1804007900798C5
:10FE500020F0006000F10060079001E000200790B2
:10FE600004F1180050F8250007990160002104F101
:10FE7000180050F825000161FF2104F1180050F826
:10FE8000250081606D1C6078A842CFD800252CE049
:10FE900004F1540050F82500006801900198C00F4B
:10FEA00070B100200190019820F0804000F1804066
:10FEB0000190019820F0006000F10060019001E0E5
:10FEC0000020019004F1540050F8250001990160D0
:10FED000002104F1540050F825000161FF2104F1D4
:10FEE000540050F8250081606D1C6078A842CFD87E
:10FEF00000200390039820F4807000F58070039038
:10FF00002069006903998843084321690861E07802
:10FF100001281DD100200290029820F00100401C11
:10FF20000290029820F00200801C0290402102986A
:10FF300061F38A000290029820F4803000F580304E
:10FF40000290029861F3594002900299206901637E
:10FF5000204600F047FB304608B070BDF8B50446B7
:10FF6000002600250020009000BF0320FFF758FE68
:10FF7000E06800690090681C05461349884201D971
:10FF80000020F8BD0098C00F0028EED00025009892
:10FF900020F00100401C00900098E168086100BF5B
:10FFA000E06800690090681C05460749884200D94E
:10FFB00004E0009800F001000028F1D100BF032008
:10FFC000FFF72EFE3046DCE7400D030008B5014682
:10FFD000002000220092009A22F00102521C00929E
:10FFE000CA689268009B9A43CB689A6008BD0EB5B8
:10FFF00001460020002200920A69926802928A69F2
:020000040801F1
:1000000012680192029AC2F3410232B1012A05D06C
:10001000022A09D0032A0DD101E000BF00BF019AD6
:100020006FF30A02019205E0019A6FF30A02D21CF3
:10003000019200BF00BF019B8A691360009A22F4FD
:10004000807202F5807200920A695268009B9A439E
:100050001A430B695A600EBDFEB50246002000240B
:100060000025029500954D78012D52D193691D68A8
:1000700002951D6900954D6955B9009D25F07F05D4
:100080000095009D25F4C01505F50025009516E0A6
:100090008E684D69B54207D98D684D610E7A009D15
:1000A00066F30605009504E00E7D009D66F30605E7
:1000B0000095009D25F4C01505F500250095009DCF
:1000C0001D61D578012D06D10F7802F1180555F87C
:1000D00027500E696E61029D25F0806505F18065EF
:1000E0000295029D25F0004505F100450295029D0F
:1000F0001D60D578002D59D14D69002D56D00E7850
:100100000125B5402C4315696D6B25431669756350
:100110004CE00E7802F1540555F826502D680295F2
:100120000E7802F1540555F826502D6900954D6959
:100130005DB90E7A009D66F306050095009D25F4D5
:10014000C01505F5002500950CE08D684D610E7A0F
:10015000009D66F306050095009D25F4C01505F584
:10016000002500950F7802F1540555F82750009EA0
:100170002E61D578012D06D10F7802F1540555F87E
:1001800027500E696E61029D25F0806505F180653E
:100190000295029D25F0004505F1004502950F7876
:1001A00002F1540555F82750029E2E60FEBD0EB593
:1001B00000210191019921F04041A1F1804101917B
:1001C000019921F4C01101F500210191019921F05B
:1001D0007F0118310191019A416D0A61C1780129AD
:1001E00015D10021009100F2CC51426D5161416D59
:1001F00009680091009921F0004101F1004100914E
:100200004FF080210091009A416D0A6000BF0EBD41
:100210003CB5024600200024019400944C78012C47
:100220000CD10D7802F1180454F825300D78012412
:10023000AC40009D64F30F0500950BE00D7802F1D2
:10024000540454F825300D780124AC40009D64F32B
:100250001F4500951C680194019CC4F3C034E4B9A7
:100260000D89019C65F30A040194CD78019C65F326
:10027000934401948D79019C65F399540194019CF8
:1002800024F0805404F180540194019C24F400442F
:1002900004F500440194019C1C601469E469009D0C
:1002A0002C431569EC613CBD38B5034600200024A1
:1002B00000944C78012C05D10D7803F1180454F802
:1002C000252004E00D7803F1540454F82520146827
:1002D0000094009C24F400140094CC78032C02D0E9
:1002E000CC78022C05D1009C24F0805404F1805479
:1002F0000094009C146038BD3CB5024600200024E8
:10030000019400944C78012C0CD10D7802F1180462
:1003100054F825300D780124AC40009D64F30F059E
:1003200000950BE00D7802F1540454F825300D7857
:100330000124AC40009D64F31F450095019C24F40A
:1003400000440194019C1C601469E469009DAC4365
:100350001569EC613CBD38B503460A46002000240F
:1003600000945478012C18D1157803F1180454F82E
:1003700025100C680094009CE40F2CB1009C24F024
:10038000804404F180440094009C24F4001404F59B
:1003900000140094009C0C600EE0157803F15404E6
:1003A00054F825100C680094009C24F4001404F503
:1003B00000140094009C0C6038BDFEB505460C4648
:1003C00000260027002002900190607801287ED14D
:1003D000217805F1180050F821000068029021787A
:1003E00005F1180050F8210000690190606948B9D2
:1003F00001986FF3120001900121019861F3DC4034
:10040000019017E06169019861F312000190606941
:10041000401EA1680844B0FBF1F1019861F3DC4093
:100420000190E078012805D1019820F0C04000F14A
:1004300000500190227805F1180050F8220001992F
:100440000161E878012807D1227805F1180050F8F9
:100450002200216941610DE0E07801280AD060693D
:1004600040B12178012000FA01F72869406B384338
:1004700029694863E078012813D1286980680090D1
:100480000098C0F3002030B9029820F0005000F12D
:100490000050029005E0029820F0805000F180505A
:1004A0000290029820F0806000F180600290029833
:1004B00020F0004000F100400290227805F1180081
:1004C00050F8220002990160E078012800E008E07D
:1004D0006CD1A08A83B222782846E16800F02DFA18
:1004E00064E0217805F1540050F821000068029082
:1004F000217805F1540050F82100006901906069ED
:1005000050B9A168019861F312000190012101988E
:1005100061F3DC40019013E0A068401E616908446B
:10052000A168B0FBF1F1019861F3DC400190019802
:10053000C0F3C940A1684843019960F312010191D9
:10054000227805F1540050F8220001990161E87801
:10055000012806D1227805F1540050F822002169C3
:100560004161E07801280ED1607930B1029820F025
:10057000005000F10050029005E0029820F08050F9
:1005800000F180500290029820F0806000F18060BD
:100590000290029820F0004000F100400290227882
:1005A00005F1540050F82200029901603046FEBD6A
:1005B00008B500210091491EC26851606FF080416A
:1005C000C2685161009921F0004101F100410091A0
:1005D000009921F4006101F5006100910099C26861
:1005E000916108BD38B50446002500200090E168FF
:1005F00088616FF08040E16848612046FFF7D8FFCE
:10060000E07820B9009820F0100010300090009899
:1006100020F4006000F500600090009820F4805005
:1006200000F580500090009820F4005000F5005034
:100630000090009820F4802000F580200090009821
:1006400020F4002000F500200090009820F0080021
:1006500008300090009820F4801000F58010009081
:10066000009820F4001000F500100090E068806908
:10067000009988430843E1688861284638BD08B579
:100680000146002000220092009A22F00102521C32
:100690000092CA689268009B1A43CB689A6008BDB2
:1006A000F8B504460025002600200090009820F0B0
:1006B0001000103000900098E168086100BFE06809
:1006C00000690090701C06460749884200D904E082
:1006D0000098C0F300100028F1D100BF0320FFF7FD
:1006E0009FFA2846F8BD0000400D0300F8B5044607
:1006F0000D460026002700200090009820F02000E2
:1007000020300090009865F38A1000900098E1680E
:10071000086100BFE06800690090781C074607493F
:10072000884200D904E00098C0F340100028F1D1BD
:1007300000BF0320FFF774FA3046F8BD400D0300F8
:1007400008B5014600200A6992680092009AC2F337
:10075000410232B1012A06D0022A07D0032A07D16A
:1007600002E0032004E000BF022001E0012000BFFE
:1007700000BF08BD0146C868406900F0010070472D
:1007800008B5026912680092009A61F301020092B2
:10079000009B0269136008BD00B502461046FFF7D2
:1007A000E9FF012801D0012000BD0020FCE701463F
:1007B0000020CA685069CA689269104070470146B3
:1007C000086982690869C069024090B270470146B1
:1007D000086982690869C0690240100C70470246C6
:1007E00002F1540353F82130986813695B6918408B
:1007F0007047F0B503460024D01CC71700EB97776D
:10080000BD10D3F8D06000BF03E030680860641CFE
:10081000091DAC42F9D30846F0BD000070B5024690
:100820000C46002300200025D57001259570402539
:100830009580012C0CD14FF0A0430125D5720825DD
:100840001570042555709D15D580022515720AE096
:100850004CB9254B0025D5720C2515700625557011
:100860004FF4A065D580D36003F5006515610021C4
:1008700010E003F5106505EB411602F1180545F887
:10088000216003F5306505EB411602F1540545F88A
:100890002160491C55788D42EBD803F58065556180
:1008A0004035C2F8CC50002108E003F5A06505EB07
:1008B000411602F1900545F82160491C15788D42DA
:1008C000F3D8002108E003F5805505EB013602F16D
:1008D000D00545F82160491C15788D42F3D803F501
:1008E0006065C2F80C5170BD00000440F8B50446C4
:1008F0000D460026E068C0680090009820F0005087
:100900000090009820F080400090012D06D10098C2
:1009100020F0005000F10050009006E02DB9009842
:1009200020F0804000F1804000900098E168C860AD
:100930003220FFF76FF93046F8BD2DE9F04104464B
:100940000026E078B0B900270020DD1C4FEAE578EA
:1009500005EB98784FEAA80704F1D00555F822C0B6
:1009600000BF04E00D68CCF80050401C091DB842DF
:10097000F8D300BF3046BDE8F08110B504462046EC
:1009800000F030F810BD00BFFEE7034600207047BE
:1009900070B504460D4629462046FDF771FA002041
:1009A00070BD000030B502460B46002111E0505CDE
:1009B0000A4C0B4D2D68605509480068401C084CD6
:1009C000206020460068B0F5006F01D10020206053
:1009D000491C9942EBD3002030BD00004F2C002071
:1009E0009C00002001460948094A126881540848C1
:1009F0000068401C064A106010460068B0F5006FA1
:100A000001D1002010600020704700004F2C002012
:100A10009C000020002070470020704710B504465D
:100A2000204600F0C3F9044603482060002084F803
:100A3000E001204610BD0000982A010810B50446C8
:100A4000204600F0F9F90446204610BD80ED010A69
:100A5000704780ED020A704780ED030A704700007E
:100A60000146002006E09FED050A01EB800282EDC1
:100A7000000A401C0428F6DB70470000000000005C
:100A800070B52DED088B04460D46284600F09CFA03
:100A9000F0EE000A80EE201AB0EE41BAB0EE4B0A3A
:100AA00000F09BFAB0EE408A284600F08DFAF0EE96
:100AB000000A80EE201AB0EE41BAB0EE4B0A00F008
:100AC00098FAF0EE408A284600F081FAF0EE000A2B
:100AD00080EE201AB0EE41BAB0EE4B0A00F07DFA7B
:100AE000B0EE409A284600F072FAF0EE000A80EE6E
:100AF000201AB0EE41BAB0EE4B0A00F07AFAF0EEEE
:100B0000409A284600F066FAF0EE000A80EE201ABD
:100B1000B0EE41BAB0EE4B0A00F05FFAB0EE40AA78
:100B2000284600F057FAF0EE000A80EE201AB0EEE8
:100B300041BAB0EE4B0A00F05CFAF0EE40AA28EEA3
:100B4000090A20EE0A0A68EEA90A00EEAA0A84ED54
:100B5000000A28EE890A20EE0A0A68EE290A00EE49
:100B6000EA0A84ED010A28EE290A20EE0A0A68EE54
:100B7000890A00EEAA0A84ED020A28EE090A20EE8C
:100B80002A0A68EEA90A00EECA0A84ED030A204682
:100B900000F003F8BDEC088B70BD10B52DED028B95
:100BA0000446D4ED000A60EEA00A94ED011AD4EDDB
:100BB000011A41EE210A94ED021AD4ED021A41EE17
:100BC000210A94ED031AD4ED031A41EE210AB0EE86
:100BD000600A00F01AFAB0EE408AB5EEC08AF1EE73
:100BE00010FA06D0B7EE000AB4EE408AF1EE10FA21
:100BF00002D1BDEC028B10BD94ED000AC0EE080AD4
:100C0000C4ED000A94ED010AC0EE080AC4ED010A21
:100C100094ED020AC0EE080AC4ED020A94ED030A3C
:100C2000C0EE080AC4ED030A00BFE2E780ED000A47
:100C3000704700B503461846FFF712FF184600BD7F
:100C400010B50446204600F07BF9044613482060A6
:100C500004F13C0000F0A0F9A0F13C0404F14800CC
:100C600000F09AF9A0F1480404F1580000F094F95A
:100C7000A0F1580404F1900000F08EF9A0F1900466
:100C800004F19C0000F088F9A0F19C0404F1AC0090
:100C900000F082F9A0F1AC04204610BDC02A010882
:100CA00010B50446204600F05BF9044610BD000074
:100CB0003EB50446012084F8A5000020C4F8A80031
:100CC000684600F069F90546294604F1540000F031
:100CD0006AF904F1540104F14400FFF7D1FE6846BB
:100CE00000F05AF905462946201D00F05CF96846D7
:100CF00000F052F90546294604F1100000F053F9BE
:100D0000684600F049F90546294604F11C0000F048
:100D10004AF9684600F040F90546294604F13800D2
:100D200000F041F904F1380104F12800FFF7A8FEB2
:100D30009FED100A84ED2C0AB6EE000A84ED2D0A10
:100D4000B0EE040A84ED2E0A94ED2D0A84ED2F0AEC
:100D5000B7EE000A84ED300A9FED070A84ED310AF0
:100D60009FED050A84ED320A9FED030A84ED330AF4
:100D70003EBD0000000000440000000010B5044625
:100D8000204600F069F80446034820602046FFF73B
:100D90008FFF204610BD0000D82A010810B5044678
:100DA000204600F0CBF80446204610BD70B504463E
:100DB0002048206004F1080504F1100000F0ECF870
:100DC000A0F108051030FFF734FFA0F1180514302A
:100DD00000F0E2F8A0F12C05103000F0DDF8A0F1F1
:100DE0003C05103000F0D8F8A0F1540404F1800064
:100DF000FFF7C4FFA0F1800404F5B27000F0CCF856
:100E0000A0F5B27404F5B87000F0C6F8A0F5B87497
:100E100004F5CA7000F0C0F8A0F5CA74002084F888
:100E2000BC0184F8BD0184F8BE01C4F8C0012046AD
:100E300070BD0000F42A010810B504460548206082
:100E40000020E06704F18000FFF7A8FFA0F1800414
:100E5000204610BDF42A010810B50446344820602D
:100E6000201D00F099F8041F04F1100000F094F820
:100E7000A0F1100404F11C0000F08EF8A0F11C0495
:100E800004F12800FFF7D5FEA0F1280404F1380092
:100E900000F082F8A0F1380404F14400FFF7C9FE25
:100EA000A0F1440404F1540000F076F8A0F15404D9
:100EB00004F16000FFF7BDFEA0F1600404F17400CE
:100EC000FFF7B7FEA0F1740404F18400FFF7B1FE50
:100ED000A0F1840404F1940000F05EF8A0F1940401
:100EE000002004F8A00F012060716070A070E07015
:100EF000A03C9FED100A04F16000FFF797FE9FED04
:100F00000D0A04F16000FFF7A1FD9FED0A0A04F14C
:100F10006000FFF79EFDB7EE000A04F16000FFF7E6
:100F20009BFD9FED050A84ED1C0A204610BD0000C4
:100F30001C2B010800000000CDCCCC3D7047704751
:100F400005490160FF21417101744FF0FF31C1601B
:100F50004161024981607047382B010820A10700D8
:100F600000B50146034808600846FFF7E8FF084659
:100F700000BD0000382B01080146002006E09FED6F
:100F8000050A01EB800282ED000A401C0328F6DB13
:100F9000704700000000000000B503461846FFF748
:100FA000EBFF184600BD884200D1704791ED000A62
:100FB00080ED000A91ED010A80ED010A91ED020A2F
:100FC00080ED020A00BFF0E790ED000A704790ED57
:100FD000010A704790ED020A704710B52DED028BA3
:100FE000B0EE408AB0EE480A00F052F8BDEC028B39
:100FF00010BD10B52DED028BB0EE408AB0EE480A60
:1010000000F0EEF8BDEC028B10BD10B52DED028B9B
:10101000B0EE408AB0EE480A00F0AAF9BDEC028BAF
:1010200010BD00000FB4054B10B503A9044A029887
:1010300000F068FB10BC5DF814FB0000731E010893
:10104000FC0100204100080218BF04200A0E18BF4E
:1010500040F001004FF07F4232EA010108BF40F04A
:101060000200012808BF052070472DE9F0411C4609
:1010700017460E00804607D0054602E02846B047D6
:101080003D442046641EF9D24046BDE8F081000090
:1010900010EE101A08B5444A6846B2EB410F28D941
:1010A0004FF0E640B0EB410F94BF00204FF0FF300F
:1010B00000900098002861DB60EE000A10F0010F3C
:1010C00045D010F0020FDFED391A9FED391A00EE0E
:1010D000E11ADFED381A40EE811A21EEA01AF0EE87
:1010E000400A40EE010A08BFF1EE600AB0EE600A65
:1010F00008BD314B21F0004293423CD911F0004F22
:10110000DFED2E0A20EE201ADFED2D0A19BF31EE99
:10111000601A71EE200A31EE201A71EE600ABDEEFF
:10112000E01A11EE100A9FED271A00F0030000EEFE
:10113000C10A9FED251A009000EEC10A9FED231A07
:1011400000EEC10A9FED221A00EEC10AB1E79FED41
:10115000211A9FED210A10F0020F00EE810A9FED87
:101160001F1A00EE801AB7EE000A00EE810A18BFBF
:10117000B1EE400A08BD00F02BF99AE710EE100A14
:101180004000B0F17F4F3CBFB7EE000A08BD07D169
:101190004FF0010000F0D6F9BDE8084000F008B9B2
:1011A000BDE8084000F001B9B61F927E336D4C399E
:1011B000DA82083CA0AA2ABE490E494683F9223F9A
:1011C0000000004B0000C93F00A0FD390020A23301
:1011D0001A61342CB93AB2BACA9F2A3DDDFFFFBE6C
:1011E00000B510EE101A2DED028B81B0524A684600
:1011F000B2EB410F2ED94FF0E640B0EB410F94BF58
:1012000000204FF0FF3000900098B0EE408A002898
:101210006ADB10F0010F4BD068EE080A9FED471A09
:101220009FED470A00EE810A9FED461A10F0020F6B
:1012300000EE801AB7EE000A00EE810A02BF01B08C
:10124000BDEC028B00BD00BF01B0B1EE400ABDECA9
:10125000028B00BD3C4B21F00042934241D911F07A
:10126000004FDFED3A0A20EE201ADFED390A19BFF0
:1012700031EE601A71EE200A31EE201A71EE600A2A
:10128000BDEEE01A11EE100A9FED321A00F00300D5
:1012900000EEC10A9FED301A009000EEC10A9FEDEA
:1012A0002F1A00EEC10A9FED2E1A00EEC10AABE71D
:1012B00028EE080A9FED2B1ADFED2B0A10F0020F23
:1012C00040EE410A9FED291A00EE201A61EE000A55
:1012D000B0EE480A08EE200AB6D101B0BDEC028B90
:1012E00000BD00F075F88FE718EE100A4000B0F16D
:1012F0007F4F0DD218EE100AFFF7A4FE042808BF96
:1013000000F05EF8B0EE480A01B0BDEC028B00BD03
:1013100009D1012000F016F901B0BDEC028B5DF897
:1013200004EB00F045B801B0B0EE480ABDEC028B0A
:101330005DF804EB00F039B8B61F927EB93AB2BA44
:10134000CA9F2A3DDDFFFFBE490E494683F9223F71
:101350000000004B0000C93F00A0FD390020A2336F
:101360001A61342C336D4C39DA82083CA0AA2ABEAB
:1013700010B52DED028BB1EEC08A18EE100A20F0E8
:101380000040C0F1FF40C00F0AD010EE100A20F05C
:101390000040C0F1FF40C00F04BF012000F0D2F8B0
:1013A000B0EE480ABDEC028B10BD30EE000A70476B
:1013B000DFED020A80EEA00A704700000000000086
:1013C0009FED020A20EE000A7047000000000010A6
:1013D0002DE9F0014FF07F42B2EB410F9FBF4FF07C
:1013E000FF310160BDE8F00170474FF0004242EA72
:1013F0000123C1F3C752783A551112F01F0C434C28
:10140000CCF120067C44C1F3C752A2F178024FEA26
:10141000621204EB820254F8254008BFD2E901565B
:1014200012D0556804FA0CF425FA06F73C43976885
:1014300005FA0CF527FA06F8D26807FA0CFCF24018
:1014400045EA08054CEA0206A4FB034CA5FB03523F
:10145000A6FB03631D449D4234BF012600261319D9
:10146000334416B1934202D903E0934201D20122E0
:1014700000E00022624402F1200C9206DC0C42EAF9
:10148000443200EE102A5B03DFED210AF8EEC01AA9
:1014900000EE103A4FEA9C1C11F0004FB8EE400AE3
:1014A000C0F800C020EE201A00EE105ADFED190A35
:1014B000B8EE400A20EE200A71EE810A70EE800A32
:1014C00010EE902A02F500626FF30B0200EE902AF4
:1014D00070EEE11A31EEC11ADFED101A30EE411A4A
:1014E0009FED0D0A20EE800A01EE210A9FED0C1AF5
:1014F00000EE810A04BFBDE8F0017047CCF18051D5
:101500000160BDE8F001B1EE400A704768160000C6
:10151000000000360000802C22AAFD29DB0FC92F15
:101520000000C92F02E008C8121F08C1002AFAD122
:1015300070477047002001E001C1121F002AFBD153
:101540007047000001490860704700000802002051
:1015500010B50E23D4220B490B48FFF786FD0B4A2A
:101560000B490020FAF7AEFE0E234FF4F272094940
:101570000948FFF77AFD054A08490020FAF7A2FE5C
:1015800010BD0000410C01082C04002000C0000820
:1015900095C800081D0A0108C40F0020B1C8000842
:1015A0002DE9FF5FDDE90220010DDDF838B00243CF
:1015B00018D044F61050A1F2FF3141430D140F989A
:1015C000012820D0A5EB0B00401C5FEA000A4FF079
:1015D0000004474EDFF81C91A046504616D5CAF1CC
:1015E000000728E00F98012443A2012808D0002119
:1015F00000980F9BC0E90021C0E90243BDE8FF9FAE
:101600006FEA0B01F4E7CBF10000DEE7074612E0DA
:10161000F80707D02246334640464946FAF710FFFE
:10162000804689462246334610461946FAF708FF97
:1016300004460E467F10002FEAD1DDE90201BAF11F
:10164000000F42464B4602DAFAF7FAFE01E0FAF7DB
:1016500069FF04460E460022284BFAF7D3FF03D851
:101660004FF0FF30014607E00022254B204631466F
:10167000FAF73FFEFBF7B8F8102409E0002C0ADB6C
:101680000A220023FAF7ECFF019B30321A55641E40
:1016900050EA0102F2D1641C019AC4F1110314440E
:1016A0000F9A012A03D0012208430DD10AE0084312
:1016B00004D000204FF0110B0F9080E7A3EB0B0537
:1016C0006D1E0DE05B4504DD4FF0000205F10105E4
:1016D00004E003DA4FF00002A5F10105002AECD086
:1016E00000980F99C0E90231C0E9004586E7000083
:1016F000000024400000F03F300000000000F043F4
:101700000000E03F2DE9FF4F95B09B468946064615
:1017100000250FE2252877D100242746F84A012129
:10172000059400E0044316F8013F203B01FA03F062
:101730001042F7D130782A2811D06FF02F0330787B
:10174000A0F13002092A16D8059A44F0020402EBEF
:10175000820203EB42021044761C0590EFE759F831
:10176000042B0592002A03DA504244F400540590F9
:1017700044F00204761C30782E2816D116F8010F9A
:1017800044F004042A280DD06FF02F023078A0F125
:101790003003092B09D807EB870302EB4303C71873
:1017A000761CF3E759F8047B761C30786C280FD050
:1017B00006DC4C2817D068280DD06A2814D104E024
:1017C000742810D07A280FD10DE044F400140AE0F8
:1017D00044F4801401E044F440147278824202D14F
:1017E00004F58014761C761C307866280BD013DC48
:1017F000582877D009DC002875D04528F6D046282F
:10180000F4D047281AD19DE118E0632835D0642828
:1018100079D0652812D195E1702873D008DC67284B
:10182000F1D069286FD06E280DD06F2806D1B5E0B1
:1018300073282CD0752875D0782874D05A461799FB
:1018400090476D1C75E1C4F30250022809D00328AB
:101850000DD0D9F8001004280DD00D6009F104094D
:1018600067E1D9F80010EA17C1E90052F6E7D9F8A4
:1018700000100D80F2E70D70F0E719F8041B8DF8E9
:10188000001000208DF80100EA46012003E059F81D
:1018900004AB4FF0FF3061074FF0000102D40DE0C0
:1018A00008F101018846B9420FDA8045F8DB1AF8E1
:1018B00008100029F4D108E008F1010188468142AE
:1018C000FADB1AF808100029F6D105985B46A0EB60
:1018D000080721463846179A00F094FA284400EB8E
:1018E000080507E04DE029E10DE01AF8010B5A4622
:1018F00017999047B8F10108F7D25B462146384660
:10190000179A13E142E00A220092C4F302524FF008
:10191000000A022A08D059F804CB032A4FEAEC71D6
:101920000AD00DE029E02AE009F1070121F00702C1
:10193000F2E802C1914609E00FFA8CFC4FEAEC7123
:10194000042A03D14FFA8CFC4FEAEC71002907DA24
:101950000A460021DCF1000C61EB02012D2202E0BD
:10196000220504D52B228DF80420012203E0E20792
:1019700001D02022F7E7904659E00A2102E0102228
:101980000DE010214FF0000A00910BE010224FF003
:10199000000A44F004040827009203E008224FF0F4
:1019A000000A0092C4F30252022A05D059F804CB6F
:1019B0000021032A08D009E009F1070121F00702FC
:1019C000F2E802C1914605E01FFA8CFC042A01D11D
:1019D0000CF0FF0C4FF00008220728D5702806D025
:1019E000009B83F0100353EA0A0305D00EE0402267
:1019F0008DF80420012208E05CEA010206D03022C2
:101A00008DF804208DF8050002229046009B83F09B
:101A1000080353EA0A030AD15CEA010201D1620712
:101A200005D530228DF804204FF001087F1E58287C
:101A300004D034A003900EA802900DE036A0F9E780
:101A400053466046009AFAF70BFE84460398825C80
:101A50000298401E029002705CEA0100F0D10298E8
:101A600006A9081A00F1200A600702D524F4803480
:101A700000E00127574502DDA7EB0A0000E0002047
:101A800000EB0A01009005984144401A0590E003DC
:101A900006D45B462146179A059800F0B3F9054431
:101AA000002706E001A85A46C05D179990476D1CB3
:101AB0007F1C4745F6DBE0030CD55B462146179AB1
:101AC000059800F09FF9054404E030205A46179924
